81
:020000040800F2
:104000006843002001410008758400080D7600080F
:10401000DD830008C155000885E6000800000000A7
:1040200000000000000000000000000007BB0008C6
:104030004168000800000000598700085DCF0008B3
:1040400017410008174100081741000817410008F0
:1040500017410008174100081741000817410008E0
:1040600017410008174100081741000817410008D0
:1040700017410008174100081741000817410008C0
:1040800017410008174100081741000817410008B0
:10409000174100081741000817410008416B00084C
:1040A0001741000817410008174100081741000890
:1040B000F9CF000817410008174100081741000810
:1040C0001741000817410008174100081741000870
:1040D0001741000817410008174100082DE20008A9
:1040E000896A00081741000817410008DFF80CD062
:1040F00000F0B8FD00480047B9F10008684300200F
:1041000005480047FEE7FEE7FEE7FEE7FEE7FEE7BD
:10411000FEE7FEE7FEE7FEE7ED40000840EA0103A8
:104120009B070AD102E008C9121F08C0042AFAD26C
:1041300003E011F8013B00F8013B521EF9D2704731
:10414000D2B201E000F8012B491EFBD270470022D9
:10415000F6E710B504460846114602462046FFF72A
:10416000EFFF204610BD30B50EE003460A4601E0E1
:104170005B1C521C1C781578AC4201D1002CF7D185
:104180001278002A04D0401C0278002AEDD10020C9
:1041900030BDCAB20178914201D009B90020704700
:1041A000401CF7E70146002000E0401C0A5C002AA2
:1041B000FBD1704710B5002200E0521C835C8C5C80
:1041C000A34201D1002BF8D1805C895C401A10BD5C
:1041D00030B504460020034600E05B1C934203D246
:1041E000E05CCD5C401BF8D030BD034611F8012BDC
:1041F00000F8012B002AF9D1184670470FB400B51A
:104200008DB0009002904FF0FF300190002003909D
:1042100006480A9010A9064804910B9004AA684623
:104220000F9900F0C7FB0DB05DF814FBD5490008ED
:10423000F14900080FB400B58DB0009002904FF026
:10424000FF3001900020039006480A9010A906480C
:1042500004910B9004AA68460F9900F0ABFB0DB0D7
:104260005DF814FBD5490008F14900082DE9FF5F0E
:10427000D3E901464FF0FF3B91461D465F464FF0A4
:104280000008A9697F1C01988847296A82468847E7
:104290000028F6D11AF1010003D1584604B0BDE858
:1042A000F09F24F4C064002E39DD60060FD550461F
:1042B000BAF12B0F03D02D2809D144F48064A969E9
:1042C0007F1C01988847761E8246002E27DDBAF1B2
:1042D000300F24D1761EA96944F400747F1C019824
:1042E00088478246002E15DDBAF1780F02D0BAF168
:1042F000580F0FD1B9F1000F02D0B9F1100F1ED134
:10430000761EA96924F400747F1C019888478246B0
:10431000102008E0B9F1000F11D1082003E0B9F135
:10432000000F0CD10A20814609E008FB0908761E1F
:10433000A96944F400747F1C019888478246002EC6
:1043400005DD4946504600F079F80028EDDAE969C4
:1043500001988847A00502D46FF001009EE7E007AE
:1043600023D1600612D5C8F10000610500D4404693
:1043700029680A1D2A600968220501D5087014E021
:10438000220701D5088010E008600EE02868011DB2
:1043900029600068210502D580F8008005E021072A
:1043A000414601D5018000E00160384676E770B5EE
:1043B00006460AF077FA046805460A2200213046CC
:1043C00000F027FB2C6070BD70B506460AF06AFA53
:1043D000046805460A220021304600F01AFB2C60D2
:1043E00070BD2DE9F047002591469A46074688465C
:1043F0002E46402418E022464146384600F054FC40
:10440000B0EB090071EB0A010ED322465146484633
:1044100000F03AFC3F1A68EB010822460021012017
:1044200000F032FC45194E41201EA4F10104E2DCEB
:10443000284631463A464346BDE8F0873A2800D23E
:10444000303820F02002412A01D3A2F137004FF08A
:10445000FF32884200D20246104670472DE9FF5FC6
:10446000D3E90185002716461C464FF0FF39BA46AE
:10447000A16909F1010901988847216A83468847A3
:104480000028F5D11BF1010003D1401E04B0BDE8A6
:10449000F09F28F4C068002D38DD5FEA486010D531
:1044A0005846BBF12B0F03D02D280AD148F4806861
:1044B000A16909F10109019888476D1E8346002D05
:1044C00024DDBBF1300F21D1A16948F400786D1EC5
:1044D00009F10109019888478346002D13DDBBF1DE
:1044E000780F02D0BBF1580F0DD10EB1102E25D18F
:1044F000A16928F400786D1E09F101090198884727
:10450000834610261AE0CEB9082617E0B6B90A2667
:1045100014E00246C317A6FB070CF11701FB07C105
:104520006D1E06FB0A11871841EB030AA16948F4C6
:10453000007809F10109019888478346002D05DDBF
:1045400031465846FFF77AFF0028E2DAE169019820
:1045500088475FEA885002D46FF0010096E75FEA6F
:10456000C87017D15FEA48600ED55FEA485003D59E
:1045700078426AEB4A0101E0384651462268131D31
:104580002360126803C205E02068011D21600068F5
:10459000C0E9007A484679E72DE9FF5FD2E901B822
:1045A0000027916914469946DDF838A03E460198E7
:1045B0008847054659EA0A000AD104E0A169761C39
:1045C000019888470546216A284688470028F5D182
:1045D000681C03D1401E04B0BDE8F09F5FEACB70B9
:1045E00010D12068011D216007680BE05FEACB70E5
:1045F00001D107F8015BA169A8F10108761C0198B7
:1046000088470546B8F1000F1ADD681C18D0B9F1CB
:10461000000F0DD0E81705EBD060411120F01F000E
:104620002A1A59F82110012090400142DED107E0FA
:10463000BAF1000FDAD1216A284688470028D5D080
:10464000E169019888470BF0010050EA0A0000D1A7
:104650003870A2686FF001004245BCDDBAF1000F6E
:1046600002D0B8F1000FB6D13046B4E72DE9FF4FC4
:10467000087881B014469A46FF2801D1002511E040
:10468000491C2D2801D1012200E00022002504E070
:1046900005EB850300EB4305491C0878FF28F7D19B
:1046A00002B16D42002620783746B3462D2801D04E
:1046B0002B2806D1641C2D2801D1012000E0002008
:1046C0008346B0464FF00A0907E0A9FB060309FB41
:1046D0000731641C861841EB08072278FF2AF4D1C1
:1046E000002387EA030186EA030005EB0A04084376
:1046F00006D1A6A1019806C906C005B0BDE8F08F95
:10470000A4A0D0E90085A5A0D0E900A9394630468B
:1047100000F032FD66420F460090002C14DB264666
:1047200012E0F00707D02B4642464946504600F0BB
:10473000A8F9824689462B4642462946404600F063
:10474000A0F980460D467610002EEAD10098002C84
:104750004B465246394602DA00F007FA01E000F013
:1047600090F9BBF1000F01D081F00041019A03C222
:10477000C3E72DE9FF4FD3E901468DB04FF0FF3875
:104780002E201F4645464FF000090190B9696D1C67
:104790000E988847396A824688470028F6D11AF170
:1047A000010002D1404611B0A8E724F4D064002EE5
:1047B0000DDD5046BAF12B0F03D02D2807D144F45C
:1047C0008064B9696D1C0E9888478246761E2D203C
:1047D00007A9620500D42B208DF81C0001F1010B04
:1047E0000DF1100809E0B9696D1C0E9888478246E2
:1047F0000F98761E44F400740560002E02DDBAF1B5
:10480000300FF0D001998A453ED144F0800406E093
:104810000F99681CA9F1010944F400740860761E20
:10482000B9696D1C0E98884782463028F0D02BE07D
:1048300001998A4505D1200603D444F08004761EF0
:1048400018E00121AAF130000A2820D2F9B1761E21
:104850000DF12F0144F400748B4506D20BF8010BC7
:10486000200607D5A9F1010003E0200602D409F1D2
:1048700001008146A00502D50F99681C0860B9693E
:104880006D1C0E9888478246002ED1DC4CE0002E2D
:104890004ADDBAF1650F02D0BAF1450F44D1A00547
:1048A00042D5761EB96924F440746D1C0E98884771
:1048B0002021002E00DD01462B2903D02D2906D111
:1048C00044F48074B9696D1C0E988847761EE10522
:1048D00001D52D2200E02B2208F8012BC2461BE057
:1048E000761E0DF1190144F40074884509D210F0C8
:1048F000FF0088F8000001D1D04507D908F1010870
:1049000004E02848E10500D440428146B9696D1CA5
:104910000E9888470F990D60002E05DD0121303873
:104920000A2801D20029DBD1F9690E988847FF20B7
:104930008BF8000088F80000002102A80A4606C093
:104940004B4607AA04A902A8FFF790FEA00502D4CF
:104950006FF0010027E714F0240F09D0E00712D10F
:104960003868011D3960DDE90212006806C00AE0FE
:10497000DDE9020100F00CFCE10704D139680A1DF1
:104980003A600968086028460DE700000000000052
:1049900000000000000000000000244000000000B3
:1049A0000000F03FF1D8FFFF026803461078114481
:1049B000196070470B461146D360044A4A61044AA5
:1049C0000A6200220A6100F08DB90000A9490008BE
:1049D000D14C000843683BB1026812F8011B19B1C1
:1049E0005B1E0CC0084670470121C160881E7047DD
:1049F000416859B1C368026843B98368934205D0DE
:104A0000521E491CC0E90021002070474FF0FF30C2
:104A100070472DE9F04780460F4691460446002630
:104A200014F8015B2DB100F04FF90068405DC0073C
:104A3000F6D12B2D05D02D2D02D146F4806600E055
:104A4000641E4A463946204600F0E6FA27B1396826
:104A5000A14201D1C7F8008071054FF0020408D5CA
:104A60004042002803DD09F01DFF0460A007BDE8F7
:104A7000F0870028FBDA09F015FF04606FF00040B2
:104A8000F5E72DE9FF4D144681EA030200208AB0C4
:104A900002F00042CDE9080223F000460346024638
:104AA0000A9821F0004585EA03015040084306D0EA
:104AB000002386EA030184EA0300084304D10020AE
:104AC00001460EB0BDE8F08DC5F30A51C6F30A5099
:104AD00000270844A0F2F330C5F31302CDE9030721
:104AE00042F48015C6F3130242F48016BA46B84663
:104AF000BB46069725E0E00717D0049A0A9880186D
:104B0000024604900A9845EB0A0A121A7AEB05034A
:104B100001D2012000E00020C11710EB0800069A26
:104B20007941801841EB0B0B069018EB08000A9AAC
:104B30007F4140EAD57890186D4176080A904FEA97
:104B40003404002386EA030184EA03000843D2D137
:104B5000039BDDE90801CDE9000102935346594664
:104B6000049A069800F0BFFAABE72DE9FF4D054621
:104B700081EA0302002086B002F0004223F00046E2
:104B8000CDE90402034621F0004484EA03016840B1
:104B9000084306D00023089886EA030158400843DA
:104BA00004D1002001460AB0BDE8F08DC4F30A51DB
:104BB000C4F31302C6F30A5042F480144FF0000B02
:104BC000C6F31302081A42F4801200F2FE305F4668
:104BD0004FF40016D846DA460992039011E0DDE959
:104BE0000823A81A74EB030106D3AD1A64EB03047F
:104BF00048EA07084AEA060A76084FEA37076D19B5
:104C00006441002386EA030187EA03000843E6D1F2
:104C100084EA030185EA0300084315D0DDE908238F
:104C200084EA030185EA0200084303D15D464FF0A0
:104C3000004409E0A81A74EB030102D201255C4686
:104C400002E06FF001056C10DDE90401039BCDE982
:104C50000001029323462A465146404600F043FA9B
:104C6000A1E70000064C074D06E0E06840F00103B4
:104C700094E8070098471034AC42F6D3FFF73AFAAD
:104C800094860108B4860108202A04DB0023203A18
:104C900000FA02F106E000FA02F39140C2F12002AC
:104CA000D040014318467047202A04DB203A21FAFD
:104CB00002F000217047D040C2F1200301FA03F353
:104CC0001843D140704700000048704774840108C1
:104CD00010B50446FFF7F8FF0068005D00F0010022
:104CE00010BD00002DE9F34F8BB04FF000084FF0DE
:104CF000010B01F10C000C464646D9460DF1080A9D
:104D00000A90626901210A989047050079D0252808
:104D100031D0216A28468847C0B1626901210A98CA
:104D20009047216A88470028F7D1411E62690A9896
:104D3000904700E0761CA1690B988847216A884754
:104D40000028F7D1E1690B988847DAE7A1690B9849
:104D500088470746A84201D1761CD2E7E1690B9843
:104D600088477F1C4DD1B8F1000FFBD14FF0FF30C9
:104D70000DB0BDE8F08F002762693D4639460A98BC
:104D800090472A2810D1626901210A98904701258D
:104D90000AE0A0498F4234DC07EB870100EB4107B2
:104DA000303F2ED445F01005626901210A989047E2
:104DB000A0F130014A460A2901D2002AE9D1E906C8
:104DC00001D46FF000476C280BD1626901210A9869
:104DD00090476C2802D145F002051CE045F004051F
:104DE0001DE04C2802D145F0200514E068280CD1C4
:104DF000626901210A989047682803D145F400654B
:104E000009E0C6E045F0080509E06A28E3D0742807
:104E100001D07A2803D1626901210A989047C4E938
:104E20000157652855D018DC582831D00CDC4528AE
:104E30004FD004DC252838D0412893D149E04628BA
:104E400047D047288ED144E05B287FD0612840D0EE
:104E500063287BD0642885D172E06F2858D00FDC9E
:104E6000662836D0672834D069283AD06E28E4D135
:104E70002068011D2160006829053CD5067040E7C7
:104E800070284FD0732861D0752859D07828D4D194
:104E900045F040006060A80749D5234610226FF016
:104EA00001000B99FFF7DAFAA0E0A1690B98884797
:104EB000054625283FF450AFE1690B9888476D1CE3
:104EC0003FF451AF65E023460A22E8E723460A2271
:104ED0002FE0234609AA6FF001000B99FFF749FC68
:104EE00084E045F040006060A80723464FF00002D0
:104EF00000D5D4E71DE0290701D5068001E7A90701
:104F000004D54FEAE671C0E90061FAE60660F8E60A
:104F100045F040006060A80723464FF0080200D526
:104F2000BDE706E040F60E0125EA01006060234679
:104F300010226FF001000B99FFF798F956E005E099
:104F400045F040006060A807C0D5BCE7002739469F
:104F50000197632806D1E80601D4C4F8089001201F
:104F600001903AE05B2838D1626901210A989047A4
:104F70005E2804D10127626939460A989047216961
:104F800031B90022534643F82120491C0829FADB95
:104F900008B94046ECE6216969B9C11700EBD16355
:104FA00059110AEB810123F01F03C31A0A6809FA99
:104FB00003F002430A60626901210A9890475D2864
:104FC000E6D14FB10020514651F82020D24341F89C
:104FD0002020401C0828F7DB02A9019B00930B4608
:104FE00022466FF001000B99FFF7D6FA002809DA84
:104FF0004FF0FF31401C02D1BBF1000F00D1414600
:105000000846B5E6E90701D108F1010806444FF06A
:10501000000B76E6CCCCCC0C2DE9F05F8246044642
:1050200000780027641C8B461546B946302811D1FC
:1050300014F8010B0127782801D0582807D10DB1A9
:10504000102D09D10027102514F8010B04E01DB91B
:10505000082501E005B90A250026B0460EE005FB4B
:10506000080005FB06F1012701EB10461FFA80F846
:10507000B6F5803F00D3B94614F8010B2946FFF777
:10508000DDF90028EBDABBF1000F04D0641E07B98C
:105090005446CBF80040B9F1000F06D009F002FCED
:1050A00002210160C81EBDE8F09F48EA0640FAE709
:1050B000F0B504460D46002003F000414140404059
:1050C00017461E4608430BD0641C4FF0004386EA87
:1050D000030145F1000557EA010001D124F0010464
:1050E00020462946F0BD2DE9F00D88461D4619439E
:1050F00007460023104359405840099E14464FF07C
:10510000FF3A084311D1BDE8F00D01467047680829
:1051100004F0010242EA340440EAC7755FEA580825
:105120004FEA370706F1010601E0DFF848B0BAEBB5
:1051300007027BEB0803EAD34FF4801A07E0FF195C
:1051400048EB080847EAD57724196D41761E381ECA
:1051500078EB0A01F3D33305A3F58013381C48EB31
:105160000301DDE90723801859412B462246BDE89B
:10517000F00D9DE7FFFF1F000EB5002240F2334304
:105180000092CDE901231346FFF7ADFF03B000BD48
:10519000F0B40023054601F0004621F0004484EA03
:1051A0000301584008430ED0C4F3130040F48010AC
:1051B000230DC10041EA5570E9003246F0BCA3F569
:1051C000607300F00BB8F0BC7047002905DA401C92
:1051D000B1F1004F01D120F00100704730B450EA26
:1051E00001040BD130BC0020704701F0010545EAF5
:1051F000510141EAC07140085B1C01E04FF080742E
:10520000A042F2D24FF4000404E0400040EAD17022
:1052100049005B1EA042F8D300EBC350A0F500008C
:1052200030BC1044D1E770B58C1810F8015B15F054
:10523000070301D110F8013B2A1106D110F8012B08
:1052400003E010F8016B01F8016B5B1EF9D12B072D
:1052500006D4002301E001F8013B521EFBD50AE011
:1052600010F8013BCB1A921C03E013F8015B01F824
:10527000015B521EF9D5A142D7D3002070BD0000BA
:1052800038B5154C0D462188142901D3002038BDAE
:105290006A4612A1FEF7CEFF684605F0C7FF002858
:1052A00005DB00EB400004EB4000C58012E02088E5
:1052B000042200EB400004EB4000801C6946FEF72E
:1052C0002DFF208800EB400004EB4000C5802088C3
:1052D000401C2080012038BDCF0D0020256C7500BA
:1052E00010B513785B1CDBB203F00F041370092CAC
:1052F00003D9103303F0F00313701378834200D105
:10530000117010BD2DE9FE430646411D0A22001D05
:10531000FEF704FF304605F05BFF354F38B10E2233
:105320003146386808F092FD0220BDE8FE836946E8
:1053300002A801F0A7FE0028F7D002994FF48628B2
:1053400008EB8120042201A901F03CF8029808F141
:10535000040101EB80200199324689B200F0BAF8CD
:105360003D680E22C5F3090431462248FEF7D6FEF9
:1053700001982049C0EBC000C4EB4000001D82B280
:105380000E31284601F01EF801981A49C0EBC00002
:10539000C4EB4000123082B2386808F0FDFC01987E
:1053A0000299401C019008EB8120042201A908F019
:1053B000F3FC08F075F9104904220868401C0860E5
:1053C0001C2002F0ADF902990A4CC80801F007034D
:1053D000463C215C01229A40114206D111432154DE
:1053E00046222146054808F031FD01209DE70000D6
:1053F00048000020F20100205400002000FF1F00A0
:1054000010B50A4890F8790002280DD10848042206
:10541000416C491C416400F14401102002F080F904
:10542000BDE8104006F01EBD10BD0000FA0B0020C4
:105430003400002070B5054600240AE008F040FB67
:10544000012808D0022806D0012008F003F9641CC6
:10545000A4B2AC42F2D370BD10B50B780022A3F118
:1054600040043E2C05D802789D24A13A6243403A7C
:1054700008E0A3F1A1045D2C0BD802789D24A13A89
:105480006243623A1A4492B243F6A5139A4200D993
:105490000022044B33F81240240A047033F812003F
:1054A000087010BD520A010810B508B102200CE0C6
:1054B000012008F06BF8462008F0CCF8012008F035
:1054C00065F8462008F0C6F80120BDE8104008F055
:1054D0005DB800002DE9F0434E1E87B007469146A7
:1054E0000025DFF8B8804EE0A81900EBD07044101A
:1054F000C4EBC40007EB4000042201A900F062FFE6
:10550000042201A94846FEF763FE88BBC4EBC40031
:1055100007EB40000E2203A9C8F8000000F052FF7C
:105520009DF810001F4BC0F3C0021D491A7000F017
:10553000F70008701C499DF81100087004221B49EF
:105540000DF112000BF0B7F9002405A88DF81A40F0
:105550000546FEF727FE28B12A4615A1174809F08F
:105560008DF901E015480470012007B0BDE8F08313
:10557000FFE7042201A94846FEF72AFE002801DAC7
:10558000661E00E0651CB542AEDDC5EBC50007EB4D
:1055900040010020C8F80010E7E7000048000020A4
:1055A0003C0000203E0000203D0000208100002043
:1055B000D0D5C3FB3A257300000000000C0D00207D
:1055C000FEE7000010B5174C8AB017A102A8A26927
:1055D00009F054F907AB0122CDE9002302AB052203
:1055E0000021012001F064FE002818DD07A8FEF765
:1055F000EBFE002813D0A0610FA104F19E00FEF77E
:10560000F4FD04F19E01012007F08EFB6822214683
:105610000C4802F0A3F94FF47A70FFF70BFF0AB0C1
:1056200010BD0000A00C0020BBFAC6F7BAC53D5B58
:10563000256C755D3A0A0000C9E8D6C3B3C9B9A69E
:105640002100000000FC01082DE9F34F8BB00D464E
:105650003C2900DD3C252E482EA143788278CDE9F7
:1056600000230379427904A809F008F9DFF8A08043
:10567000DFF8B0A0A8F16108D8F81C00D8F818101D
:1056800000EB4000DFF8989001EB80044FF4B01B72
:10569000CAF1000606AF0C3C4C4501D3544402E06D
:1056A0005C4500D234440C2206A9204608F0DEFAFC
:1056B0000422791D02A8FEF731FD9DF8080012288A
:1056C00024D89DF80900312820D89DF80A00232805
:1056D0001CD89DF80B00592818D82A4602A904A8FE
:1056E00001F0B0F890B9042206A90B98FEF770FDFE
:1056F0000028D0D1BDF8081008F152000180BDF893
:105700000A10418000200DB0BDE8F08F0120FAE7BB
:1057100095000020256325632563256300000000B4
:10572000F09C1F001063F6FF70B50E480E49827999
:105730000B789A4215D00978817100240B4D0DE049
:1057400004EB440005EB4000C18811B1491EC18043
:1057500003E0204601F0E0F8641E641C2888A042A3
:10576000EEDC70BD3400002002010020CF0D0020CF
:1057700030B5094B0C881D78AC420AD01B780B80E1
:105780001188491C89B211800088814201D301200F
:1057900030BD002030BD00000201002070B51C4D5E
:1057A0000024A879A8B1AA1C2946281DFFF7E0FF0C
:1057B00078B1E87920B90021032008F0E0FAEC7113
:1057C000012008F0B7FA124801217838C171C4727B
:1057D000AC710F4D1035A87950B1AA1C2946281D6F
:1057E000FFF7C6FF20B10021022008F0C8FAAC7113
:1057F000074D2035A87930B1AA1C2946281DFFF78E
:10580000B7FF00B1AC71BDE87040FFF78DBF00007D
:10581000AC0000200246002005E032F8023B891E61
:10582000184480B209B20129F7DC002902DD1178A1
:10583000084480B27047000010B51C4AD27E0AB9F5
:10584000022010BD1A4C0028227A42F008034FEAC9
:1058500002700FD1002804DBD8B2237240F0800020
:1058600013E0100602D442F080000EE0032008701E
:1058700010A110E0002804DBD8B2237220F08000D1
:1058800003E0100604D522F080002072012010BD34
:105890000420087009A10B48FEF7A7FC0021094A63
:1058A000084602F001FF002010BD0000FA0B0020A6
:1058B00034000020D6D8B8B4BDF80000D6D8B8B4AB
:1058C000B3F600003E0D0020FEB5014603226846F7
:1058D000FEF724FC00208DF803000446194E2BE04F
:1058E00006EB840505F12E0003226946FEF770FCE5
:1058F00000BB95F8310000F09DF80028144812A173
:105900000BD0FEF772FC124812A14B30FEF76DFC73
:105910000F4A0F494B3201200AE0FEF766FC0C48A3
:105920000FA14B30FEF761FC094A09494B320020B8
:1059300002F0BAFE641CE4B296F82D00A042CFD863
:10594000FEBD0000FA0B0020C3DCC2EB000000002B
:105950003E0D0020C8CFD6A4CDA8B9FD00000000A0
:10596000CAB1B6CEB4ED21002DE9FC41144FB87E8A
:1059700020B31448002441798DF8001000798DF887
:1059800001006D46104E16E006EB44000222A91CF1
:1059900008F06CF99DF800009DF80210884208D1CB
:1059A0009DF801009DF80310884202D10020BDE857
:1059B000FC81641CA4B2B87EA042E5D80120F6E7C1
:1059C000FA0B00209500002000A81F002DE9FF41E0
:1059D0001648002481788DF80C1041788DF80D1050
:1059E00000788DF80E006D464FF48326104F16E0B8
:1059F00004EB440006EB40000722694608F036F944
:105A0000032303AAE91C684608F0EAFA28B1012139
:105A1000052008F0B4F9BDE8FF81641CE4B297F8F2
:105A20004C00A042E4D80021F2E7000095000020DD
:105A3000FA0B0020F0B587B063284ED0142853D25B
:105A400040F2431148432949062201EB400702A9CD
:105A5000384608F00BF99DF80800254E02AD38B322
:105A6000012827D002283FD19DF80D209DF809007C
:105A7000A91C01F06BFC9DF80D100446814206D074
:105A80008DF80D40062202A9384608F0DFF90620FD
:105A900000EB041080B23844102202A908F0E6F8A6
:105AA000B0788DF8000070788DF8010000240CE0CB
:105AB000F07807E0307900F00F01000900EB80007A
:105AC00001EB4000401E84B2E1E705EB8400811C3D
:105AD00002236A4608F084FA10B1012007B0F0BD35
:105AE000641CA4B2042CF0D30020F7E700BA1F0016
:105AF000950000202DE9FE4F002407468946924676
:105B00009B462546381980462E2101F041F906B200
:105B1000701C15D03246414601A8FEF7FFFA00205E
:105B200001A9885501A8FEF742FC0DF80500A0194F
:105B3000401C6D1C2DB204B2032DE3DB385D10B99F
:105B40000020BDE8FE8F3819FEF731FC9DF80020DB
:105B500089F800209DF801208AF800209DF8022095
:105B60008BF800200C9908700120EAE72DE9F0433A
:105B7000DFF8E89087B099F84B7004464FF00008C2
:105B8000012F05D1A07836494843009021882BE0A9
:105B9000022F01D0032F30D100204FF0010C01AEB5
:105BA000CDF804800021255C0CFA01F26346154211
:105BB00005D0325CC1F10705AB401A433254491C91
:105BC00009B20829EFDB315C0A0142EA11113154B4
:105BD000401C00B20328E5DB012F09D19DF8060027
:105BE0001F494843BDF8041008440090206004E0B9
:105BF000042201A92046FEF791FA99F84B004D4680
:105C0000042828D017A104A8226808F037FE4635DA
:105C1000287804AE81196A7801A8FEF77FFA30224D
:105C20000A2104A8FEF78CFA6A7801A9C2F10A00D9
:105C30003044FEF773FA8DF81A800CA10C48FEF779
:105C4000D4FA6A460A4904A8FEF7D8FA042269463B
:105C50002046FEF763FA07B0BDE8F083FA0B002098
:105C6000A0860100253031306C750000256C750070
:105C70003E0D002070B506460E48002490F89100B5
:105C80000D46002815D112E0305DA12802D2641C17
:105C90006D1E0BE03219517802F0A8F90028F6D0F9
:105CA000511C1046FFF7D8FBA41CAD1E2DB2012DD0
:105CB000EADC70BDFA0B0020134A022812D0032838
:105CC0000AD0042816D006281CD1104800294FF00D
:105CD000400115D001F036B900294FF0100100D075
:105CE00004E005E000294FF0080101D01046F1E77B
:105CF000104605E000294FF0200100D0F6E7F7E755
:105D000001F01EB970470000000C0140001801406E
:105D10002DE9F041244E254F00240F21304601F09B
:105D200011F93CB1012C07D0022C0AD0032C0AD166
:105D3000082102E0012100E00221304601F000F9D3
:105D400001E00421F9E70A2007F094FC384601F04D
:105D5000EDF8054600F00F00072818D0322007F0B4
:105D600089FC384601F0E2F885421AD10020012270
:105D700002FA00F1294206D104EB440108440C491F
:105D8000085CBDE8F081401CC0B20328F0D3641C5D
:105D9000E4B2042CC1D30749087810B100220A707C
:105DA000EFE70020EDE7000000100140000801408F
:105DB0006C0901080900002000B589B007F014FC47
:105DC00028A12B48FEF711FA0121294A084607F0BD
:105DD00031FF07F075FE0390F8B19DF80C00022822
:105DE0003ED024A12248FEF700FA05AB0122CDE9FE
:105DF00000231F4B0A220021012001F059FA0A2832
:105E00002ED11EA11A48FEF7F0F904AA184905A8D8
:105E1000FEF7F4F90498059007E005A903A805F03A
:105E200041FC10B901F0E6FED3E71148BDF81410AB
:105E3000CE388180BDF81610C180A0F17601A6226F
:105E40004FF4852008F002F80DA10948FEF7CDF9BE
:105E50000749012006F068FF4FF4FA60FFF7EAFAFD
:105E600009B000BDB5C8B4FDCAE4C8EB2E2E2E00A3
:105E70003E0D0020BFA8BAC53A000000256C750091
:105E8000C7E5C1E3BFA8C9E8D6C3B3C9B9A6210015
:105E900000B589B007F0A8FB29A12C48FEF7A5F9A9
:105EA00001212A4A084607F0C5FE07F009FE0390C3
:105EB000F8B19DF80C00022840D025A12348FEF738
:105EC00094F905AB0122CDE90023204B0A220021E1
:105ED000012001F0EDF90A2830D11FA11B48FEF77F
:105EE00084F904AA194905A8FEF788F904980590D1
:105EF00007E005A903A805F0D5FB10B901F07AFE6B
:105F0000D3E7164901204874A1F10A00BDF8141026
:105F10008183BDF81610C183A62210494FF4852055
:105F200007F094FF0EA10948FEF75FF90749012029
:105F300006F0FAFE4FF4FA60FFF77CFA09B000BDF4
:105F4000B5C8B4FDCAE4C8EB2E2E2E003E0D0020CD
:105F5000BFA8BAC53A000000256C7500FA0B0020F6
:105F6000C4B8BFA8B4B4BDA8B3C9B9A62100000085
:105F70002DE9F04F87B001AB82468B46009302AB10
:105F800003AA04A96C48FFF7B5FD9DF80C009DF825
:105F900010106A4D40EA0120010241EA1020ADF8DC
:105FA00018009DF804009DF80810002440EA012024
:105FB000010241EA1020ADF81A0085F8674001ABF4
:105FC000009302AB03AA04A905F15800FFF792FD64
:105FD0005B4ED0B19DF80CC09DF810004CEA00213A
:105FE0000A0242EA1121ADF814109DF808209DF82C
:105FF000041040EA0C0041EA02231F0247EA13237F
:106000001043ADF81630084300D13470322008F048
:10601000D1FBDFF82C81DFF82091307808F13008CF
:10602000A9F1540980B1B5F8680009F0ABF8014650
:1060300005A809F077FEBDF814100746A8F800106F
:106040004046BDF816100FE0B9F8640009F09AF860
:10605000014606A809F066FEBDF81810A8F8001061
:106060000746BDF81A10404641809FB909F094FADE
:10607000307830B1B5F8680009F084F8014605A819
:1060800005E0B9F8640009F07DF8014606A809F0BA
:1060900049FE0746B888F083DFF8A890B470022064
:1060A000C9F8007009F0FAFEDFF89C80B8F800002B
:1060B00038B90220C9F8007009F0F0FEB8F8000005
:1060C00018B109F0EDFC09F009FA002707E0B078F3
:1060D00088B9012007F0BEFA08F0A0F97F1CB5F8D6
:1060E0004E00B842F3DCB07828B9308A042802D9CF
:1060F000348201F0D9FDB078BAF1000F02D107B0B7
:10610000BDE8F08F40B1F470584605F0BFFBB5F81C
:106110004E0008F017FBF2E7307918B17079401C97
:10612000707106E0B471307808B1347001E001207C
:1061300030700020E3E70000F40C0020FA0B002090
:106140007001002050010020380100202DE9F043AB
:1061500087B03D4E002586F8675002AB814600931C
:1061600003AB04AA05A906F15800FFF7C3FCC8B1A8
:106170009DF810309DF8140043EA00210A0242EA1B
:106180001121ADF818109DF80C209DF80810184347
:1061900041EA0224270247EA14241043ADF81A40CA
:1061A00008434ED00A2008F005FBB6F8680008F056
:1061B000E9FF014606A809F0B5FD04002348BDF833
:1061C00018100180BDF81A1041800AD109F0E4F9D5
:1061D000B6F8680008F0D6FF014606A809F0A2FD4F
:1061E0000446DFF86880A188A8F13408A8F81E10DA
:1061F00088F80250164D02202C6009F04FFE154F12
:10620000388828B902202C6009F048FE388818B177
:1062100009F046FC09F062F9B9F1000F02D0B6F8B6
:106220004E5000E0C8250024464607E0B07838B953
:10623000012007F00FFA08F0F1F8641CAC42F5DB1E
:10624000B07807B0BDE8F083FA0B0020A40100206D
:1062500050010020380100202DE9F04387B001AB48
:10626000009302AB03AA04A95148FFF743FC9DF831
:106270000C009DF810104F4E40EA0120010241EA47
:106280001020ADF818009DF804009DF808100025B6
:1062900040EA0120010241EA1020ADF81A0086F818
:1062A000675001AB009302AB03AA04A906F15800A2
:1062B000FFF720FCDFF80081DFF8F490A8F130044C
:1062C000A9F15409D0B19DF80CC09DF810004CEA1A
:1062D00000210A0242EA1121ADF814109DF80820AD
:1062E0009DF8041040EA0C0041EA02231F0247EA2D
:1062F00013231043ADF81630084301D1257012E086
:10630000207880B1B6F8680008F03CFF014605A887
:1063100009F008FDBDF814100746A8F80010404623
:10632000BDF816100FE0B9F8640008F02BFF014625
:1063300006A809F0F7FCBDF81810A8F800100746E9
:10634000BDF81A10404641809FB909F025F9207820
:1063500030B1B6F8680008F015FF014605A805E061
:10636000B9F8640008F00EFF014606A809F0DAFC4F
:106370000746B888E083A570A572A5840120E07265
:10638000C820E0840D4C0220276009F087FD0C4DE9
:10639000288830B90220276009F080FD288800286D
:1063A00003D009F07DFB09F099F807B0BDE8F08350
:1063B000F40C0020FA0B0020A00100205001002066
:1063C000380100202DE9F041124F04460D461646D3
:1063D0001021384600F0B4FD03200AF0ADFAC4F3F2
:1063E00007400AF0A9FAC4F307200AF0A5FAE0B2C0
:1063F0000AF0A2FA002405E009F048F8641C05F848
:10640000010BA4B2B442F7D33846BDE8F0411021E5
:1064100000F098BD0010014070B5114E04460D46C5
:106420001021304600F08CFD03200AF085FA200A86
:106430000AF082FAE0B20AF07FFA00200AF07CFA51
:10644000002409F023F8641CA4B205F8010BFF2C0A
:10645000F7D93046BDE87040102100F073BD000050
:106460000010014070B5084C1021204600F068FD76
:1064700005200AF061FA09F009F8054610212046C6
:1064800000F060FD284670BD0010014010B5074CBB
:106490001021204600F054FD04200AF04DFA204659
:1064A000BDE81040102100F04DBD0000001001407B
:1064B00010B5074C1021204600F042FD06200AF0DE
:1064C0003BFA2046BDE81040102100F03BBD000023
:1064D0000010014070B504460D46FFF7E9FF184E65
:1064E0001021304600F02CFD0A200AF025FA200A7F
:1064F0000AF022FAE0B20AF01FFA00200AF01CFAB1
:10650000002415F8010B0AF017FA641CA4B2FF2C42
:10651000F7D91021304600F015FDFFF7A3FFC007A3
:10652000FBD1002164200200A0F10100C0B2FAD129
:10653000491C89B20129F5D3BDE87040FFF7A6BF19
:10654000001001402DE9F84F04464FF6FF70ADF8FA
:10655000000003208DF802004820224F8DF8030030
:106560006946384600F094FCDFF87CA04FF40049FF
:106570004946504614B900F0E3FC01E000F0E2FCAB
:106580001A4D4FF400742146284600F0D9FC012032
:1065900008F0C8FD6110284600F0D4FC144E2146D6
:1065A000304600F0CDFC012008F0BCFD384600F07C
:1065B000BDFC80462146304600F0C4FC21462846FA
:1065C00000F0C0FC4946504600F0BCFC10208DF89D
:1065D00003006946384600F05BFC08F0FF00BDE8A8
:1065E000F88F000000140140000C01400008014039
:1065F000001001402DE9F84F4FF6FF70ADF8000094
:1066000003208DF8020048201F4C8DF803006946D6
:10661000204600F03DFC1D4E4FF400452946304613
:1066200000F090FCDFF8688067153946404600F0BE
:1066300087FC012008F076FDA115404600F082FCA1
:10664000DFF850903946484600F07AFC012008F007
:1066500069FD204600F06AFC82463946484600F053
:1066600071FC3946404600F06DFC2946304600F08A
:1066700069FC10208DF803006946204600F008FCF4
:106680005046BDE8F88F000000140140000C0140A6
:10669000000801400010014070B51A4C06460D4636
:1066A000204600F043FC00F47F413143204600F0D7
:1066B0004BFC15484FF4004115B900F041FC01E0D6
:1066C00000F040FC114D4FF400742146284600F0C4
:1066D00037FC012008F026FD21460D4800F032FC71
:1066E00066103146284600F02BFC012008F01AFD08
:1066F0003146284600F026FC21462846BDE8704079
:1067000000F020BC00140140000C014000080140D2
:1067100000100140F8B54FF6FF70ADF800000320FF
:106720008DF8020010248DF803406946194800F0E6
:10673000AFFB194E65012946304600F003FCADF869
:1067400000508DF803406946304600F0A1FB134F1E
:10675000E4022146384600F0F5FBADF800406946FA
:10676000384600F095FBE4112146304600F0EAFB84
:10677000ADF800406946304600F08AFB084C2946D7
:10678000204600F0DFFBADF800506946204600F0DF
:106790007FFBF8BD0014014000080140000C0140DF
:1067A000001001402DE9F347224888460668BDF8ED
:1067B00000004FF0000A801C82B2144605211E48DA
:1067C0000092FDF7C4FC1C4D4D20687104221B494A
:1067D000A81DFDF7A3FCA5F138099DF8001009F1EB
:1067E000420001709DF80110417098F80000287374
:1067F000E21E08F1010105F10F00FDF78FFC85F89D
:106800000EA0E21D85F80DA011B2681DFFF702F879
:1068100060F30F07F843401C60F30F0709F14500D0
:106820000770390A417004F10C02C6E90852BDE84C
:10683000FC87000050010020343300209C01002020
:10684000704700002DE9FE4381469046042201A8CE
:10685000FDF764FC042201A94846FDF7B9FC0028B5
:1068600056DB00240127264601AD45E0EA1C002145
:106870006020FEF735FD9DF8070010BB9DF806006F
:10688000232833D1234880798DF800009DF8040037
:106890008DF801009DF805008DF80200684608F0AB
:1068A000F9FE9DF80510884218D19DF804001228C1
:1068B00008D18DF804708DF805708DF806608DF89C
:1068C000076017E08DF805708DF806608DF8076099
:1068D00001AA01211320FEF703FD0BE08DF80660ED
:1068E0006A1C01218DF807603220F4E7AA1C002100
:1068F0002420F0E7641C24B24445B7DB0422494657
:1069000001A8FDF765FC002802DD0020BDE8FE833C
:106910000120FBE79500002010B5002812DB0A4C8F
:106920002188091A491E01EB410100EB40004A0091
:1069300004EB400000F10801801CFDF7EFFB20880C
:10694000401E2080012010BDCF0D0020F8B504F0BE
:106950003FFC08B90220F8BD1D4D04222868A0F5AF
:106960008620810AC0F309044FF4862000EB8120C1
:1069700006466946FFF726FD0099C1EBC100C4EB4E
:1069800040000A3882B2286812490E30FFF71AFD1B
:1069900000981049C0EBC000C4EB40000A3882B236
:1069A000286807F0F9F900980422401E0090694613
:1069B000304607F0F1F906F073FE07490422086833
:1069C000401E08601C2000F0ABFE0120F8BD000056
:1069D00048000020F20100205400002010B50949B1
:1069E0000020086004221C2000F09AFE4621064880
:1069F000FDF7ADFBBDE8104046220349034807F010
:106A000025BA000054000020AC01002000FF1F0048
:106A10001CB51C4C606A002828D0A16A814226D28D
:106A2000694601A800F02EFB01281FD1D4E9091006
:106A3000BDF80020091A914200D20091C0EBC000BD
:106A40004FF44F2101EB4002BDF80010019800F017
:106A500015FD01280AD1BDF80010A06A0844A06203
:106A6000084904222831242000F05AFE1CBD0020D1
:106A700060620449A06204222431202000F050FE0C
:106A8000EEE70000340000202DE9F0414FF480676C
:106A9000384600F0B7F80125284E002438B33846B0
:106AA00000F0AAF8B07800281FD1307920B97471AD
:106AB000F5707462F5712DE0202806D8C0F120022F
:106AC00005FA02F1726A11437162401CC0B2307162
:106AD000222801D1357202E0232800D17572317865
:106AE000884201D1B57125E07471BDE8F0814FF4A1
:106AF0000067384600F086F80028F6D0384600F0E7
:106B00007BF8B0780028F0D1307928B97471F5702D
:106B10007462F4713571E8E7401CC0B2307122280C
:106B200001D1347202E0232800D174723178884296
:106B3000DAD1B4713471F470B570D5E70800002073
:106B40002DE9F0414FF48077384600F05BF80125DD
:106B5000284E002438B3384600F04EF8B07A0028AA
:106B60001FD1307B20B97473F572B462F5732DE0D8
:106B7000202806D8C0F1200205FA02F1B26A1143BA
:106B8000B162401CC0B23073222801D1357402E0DA
:106B9000232800D175743178884201D1B57325E07E
:106BA0007473BDE8F0814FF40077384600F02AF89E
:106BB0000028F6D0384600F01FF8B07A0028F0D14F
:106BC000307B28B97473F572B462F4733573E8E7F7
:106BD000401CC0B23073222801D1347402E0232853
:106BE00000D1747431788842DAD1B4733473F4729A
:106BF000B572D5E708000020014908607047000021
:106C000014040140054B01461A6800205B690A40E4
:106C10000B4202D0002A00D001207047000401403E
:106C200030B51B4A8179036859B311460C689C43FF
:106C30000C604B680468A3434B600479A3181C687C
:106C400005682C431C608B680468A3438B60CB6889
:106C50000468A343CB604379A1F58061102B0AD16E
:106C600001F581610A6803681A430A604A6800688E
:106C700002434A6030BD99180A68006802430A60FE
:106C800030BD0079104401689943016030BD0000B7
:106C90000004014070B5054640F6FF76304600F02E
:106CA00063F8042813D10A4C206940F002002061E7
:106CB0006561206940F040002061304600F054F8E2
:106CC000052804D0216941F6FD721140216170BD93
:106CD0000020024008490420CA68D20701D00120E0
:106CE0007047CA68520701D502207047C968C906B3
:106CF000FBD50320704700000020024002480169D4
:106D000041F080010161704700200240F0B5054666
:106D10000E460F2000F028F8042816D10B4C2069ED
:106D200040F0010020612E800F2000F01DF841F698
:106D3000FE77042804D1300C68800F2000F014F88E
:106D4000052802D0216939402161F0BD00200240B0
:106D50000348024941600349416070472301674588
:106D600000200240AB89EFCD00B50346FFF7B2FF2C
:106D700005E0FF20401EFDD1FFF7ACFF5B1E0128A0
:106D800002D1002BF5D101E0002B00D1052000BD80
:106D90000346002002E08A4204D0401C1A5C002A0C
:106DA000F9D1501E7047000010B500F0A9FF03494B
:106DB0004FF0FF304880088010BD00001001002017
:106DC0002DE9F041A2B002AB0C46009380460A23A5
:106DD00001222D2100F090F900283DD001AA21A127
:106DE00002A8FDF727FA042201A92046FDF796F92B
:106DF0000A21201DFDF7ABF9022502AE21E06D1C32
:106E00009DF80820ADB24E2A0BD0502A27D0542A24
:106E100013D0572A15D10222211D701C08F014FB33
:106E20000FE004F108000622711C0746FDF776F911
:106E300006213846FEF71EFF03E0701CFDF7B7FA87
:106E4000607102AB00930A23EAB22D21404600F0A4
:106E500053F90028D3D1012022B0BDE8F0810422EB
:106E6000A11DDAE7256C750010B58A0721F003042F
:106E70000649120F21440F238C6893409C438C6079
:106E80008B68904003438B6010BD00000000014000
:106E9000F0B5CC78002204F00F03E40601D58C781D
:106EA00023430C884FF00F0C14F0FF0F4FF0010E2E
:106EB0001AD006680D880EFA02F42540A5420FD1BB
:106EC00095000CFA05F726EA070703FA05F6CD78D0
:106ED0003E43282D01D1446102E0482D00D10461D8
:106EE000521C082AE6D306600A88FF2A1DD9466884
:106EF000002202F108050EFA05F40D882540A5428E
:106F00000FD195000CFA05F726EA070703FA05F6F4
:106F1000CD783E43282D00D14461CD78482D00D155
:106F20000461521C082AE4D34660F0BD806880B238
:106F300070470246926800200A4200D00120704744
:106F40004161704701617047C160704770B5114E73
:106F50008AB000213174026840F2DC550EA1684607
:106F600007F08CFC6946002004F03CFC70B1002462
:106F7000012006F06FFB07F051FA307C022806D0A2
:106F8000012804D0641CA4B2AC42F1D300200AB0A2
:106F900070BD000034000020253031306C750000D9
:106FA0002DE9F04781460020A4B08A4617460446E2
:106FB0000546804604AE1EE019F805102C2913D1B1
:106FC000B8B106F80080694604A8FFF7F9FE38B1A9
:106FD000C4EBC40007EB40000E226946FDF79EF8A3
:106FE0000020641CA4B204E0802802D23154401C6A
:106FF00080B26D1CADB25545DED380B106F800807D
:10700000694604A8FFF7DCFE38B1C4EBC40007EB07
:1070100040000E226946FDF781F8641CA4B22046A8
:1070200024B0BDE8F0871CB51C46069B00220498DE
:10703000CDE90023034622460021012000F038F963
:10704000A04201D101201CBD00201CBD0B4A92F8BA
:107050007910022909D192F88B0010B10848C07B41
:1070600001E092F88C00323004E0012904D192F85A
:107070008E002830C0B27047401CFBE7FA0B00209E
:10708000340000202DE9F84FDFF8688006460F46EF
:1070900000244FF486254FF001094FF40C7A05EBDC
:1070A000842004226946FFF78DF9E00804F0070107
:1070B00018F8000009FA01F2104200980BD160B1F3
:1070C0000020009005EB84200422694606F0BEFEF5
:1070D0004820346005E0482807D234600098C0F1A9
:1070E000480038800120BDE8F88F641C5445D6D391
:1070F0000020F8E7AC0100202DE9F05F00248B466A
:10710000164698460546A2461FB2DDF828901DE0B7
:1071100005465946FDF73DF8A8B9641CB4420FD1A5
:107120002846FDF73FF804B254B1444500DD3C4623
:10713000224629464846FCF7F1FF09F804A014E06E
:107140000020BDE8F09F401C641CE4B2B442DFD3D1
:10715000401B401E04B2444500DD3C462246294601
:107160004846FCF7DBFF09F804A00120E9E72DE918
:10717000F041884616461F460546002408E00546AD
:107180004146FDF706F8002808D0401C641CE4B214
:10719000B442F4D3401B401E38802846BDE8F0813D
:1071A0002DE9F043814687B000250121022006F039
:1071B00081FB002403AE06EB84030122CDE900230A
:1071C0009846002303220121184600F071F8074673
:1071D000012804DB4046FDF7EAF8FF2803DD002024
:1071E00007B0BDE8F083032C07D0E819401CC5B2F6
:1071F0002E222946022006F030FD641C24B2042C05
:10720000D9DB06AB05AACDE90023331D03AA03A1F0
:10721000484607F033FB0120E2E7000025732E25E6
:10722000732E25732E2573002DE9F04107468846FD
:1072300016461D46FCF797FF040017D04046FCF7A2
:10724000B1FF0444E41C3846FCF7ACFFC1198C4282
:107250000CD206E0222803D0202801D03A2803D1FE
:10726000641C20780028F5D18C4202D30020BDE8B0
:10727000F081081B82B2B24200D932460020034698
:1072800005E0215C222904D02954401CC0B2904260
:10729000F7D32B540120EAE7012080F3108803483C
:1072A0004068002181F31088704700000000002032
:1072B0002DE9F05FDDE90AA78B4690461E460024C3
:1072C0003D4608B106F090F916B1304606F006FCCE
:1072D0004FF00009082006F0A1FD060003D14FF091
:1072E000FF30BDE8F09F012E05D1BBF1000F28D083
:1072F000444526D202E0022E10D114B987F800903E
:10730000EDE7641E6D1EE4B2082006F09CFC202010
:1073100006F099FC082006F096FCDBE7A6F13000A9
:107320000928D7D84445D5D2BAF1010F01D130464A
:1073300000E02A2006F087FC641C05F8016BE4B22B
:10734000C8E785F800902046CBE700002DE9FE4F06
:1073500006463048934603790093894643798279FB
:107360002DA101A807F08AFA0322494601A8FCF7DB
:107370002FFF00B2002802D15846BDE8FE8F04DA84
:1073800001ACCA464FF0000703E04C460DF1040A79
:10739000012700254FF00108204608F07BF9A1786D
:1073A000884226D1607884F802801228404605D1B0
:1073B0006070224600214FF4807002E0621C0121BF
:1073C0001320FDF78DFF6D1C2DB203225146204680
:1073D000FCF7FEFE0028DFD10E480FA103790093D1
:1073E00043798279484607F049FA37B10BEB05003B
:1073F0000AE0A21C01213220E3E795FBF6F006FB30
:10740000105006EB0B01081A90FBF6F106FB110079
:10741000C0B2B2E795000020256325632563000014
:1074200010B5012901D0022901D10C31401E64247C
:1074300090FBF4F304FB1300491C01EB810404EB03
:10744000C101052491FBF4F1DC1703EB9474A41043
:107450005B4204EB43030344C41700EB947003EB5B
:10746000A0000844104400F2BB20072190FBF1F279
:1074700001FB1200002800D1072010BD2DE9F04FBC
:107480008946824601464FF4862000EB812087B072
:1074900093464FF480623D49069006F0E7FB3B4F70
:1074A0000026386805904844482803D9002007B0D2
:1074B000BDE8F08F0025DFF8D8803BE0C5EBC500C4
:1074C0000BEB40000E2201A9FEF77CFF059801AAF4
:1074D00081B2381D00F062F840B1D8F800000E22E9
:1074E0003844001D01A9FCF719FE22E00598A0B15F
:1074F000C0EBC0006FF0090101EB400408E039194E
:1075000001F10E000E22FCF709FE042C05D00E3C02
:10751000D8F80000001D8442F1D2D8F800000E22F5
:107520003844001D01A9FCF7F9FD0598761C401CA4
:1075300005906D1C4D45C1D3042205A91348FCF7E5
:10754000EDFD4FF480621149069806F07FFC059826
:1075500088B10E4C4FEADA00463C0AF00703215C82
:1075600001229A40114206D111432154462221465C
:10757000084806F06BFC08480422016831440160A9
:1075800001461C2000F0CCF8012090E7F201002019
:107590004800002000FF1F00540000202DE9FC4798
:1075A0004E1E074691460025DFF85C8023E0A819AF
:1075B00000EBD0704410C4EBC40007EB4001042280
:1075C0006846FCF7ABFD042269464846FCF700FE1E
:1075D00038B9C4EBC40041000120C8F80010BDE870
:1075E000FC87042269464846FCF7F2FD002801DAD0
:1075F000661E00E0651CB542D9DDC5EBC500410043
:107600000020C8F80010EAE748000020FEE700006C
:1076100038B54FF40054ADF8004003208DF8020057
:107620001020094D8DF8030069462846FFF730FC0D
:1076300021462846FFF784FC00F0A6F8214628469C
:10764000BDE83840FFF77EBC000C0140F8B50F469E
:107650001546C0B200F087F840B1022005F0E4FF03
:1076600000F016F9D12000F0D3F808B90020F8BDD9
:1076700000246E1E08E000F0A5F83855B44201D091
:10768000FFF7C6FF641CE4B2AC42F4D34FF40054DD
:10769000ADF8004003208DF802001020084D8DF851
:1076A000030069462846FFF7F3FB21462846FFF70B
:1076B00049FC00F069F800F017F90120F8BD00005E
:1076C000000C014070B504460D46164602E0052048
:1076D00005F0C0FF324629462046FFF7B7FF0028D5
:1076E000F5D0012070BD70B50D461646C0B200F051
:1076F0003AF808B9002070BD002408E0285D00F0C9
:1077000087F810B900F0F0F8F4E7641CE4B2B44272
:10771000F4D300F0E9F8082005F09CFF012070BDCB
:1077200070B586B004460D461646142101A8FCF734
:107730000EFD02E0052005F08DFF32462946204669
:10774000FFF7D1FF0028F5D0324601A92046FFF708
:10775000B9FF3246294601A8FCF73AFD0028ECD1D2
:10776000012006B070BD10B5044600F091F8D0209D
:1077700000F04EF818B1204600F04AF808B9002091
:1077800010BD012010BD000070B50D4D4FF48056A6
:10779000002431462846FFF7D5FB052005F06AFF97
:1077A00069142846FFF7C5FB012800D101243146A2
:1077B0002846FFF7C5FB052005F05CFF204670BD9D
:1077C000000C0140F8B54FF40055ADF8005003200F
:1077D0008DF8020048200D4E8DF803000024694604
:1077E0003046FFF755FB29463046FFF7ABFB002537
:1077F0006006040EFFF7C8FF08B1641CE4B26D1CFC
:10780000EDB2082DF4D32046F8BD0000000C014075
:107810002DE9F8431D4F054600244FF003084FF0B3
:1078200010094FF40056ADF800608DF802808DF815
:10783000039069463846FFF72BFB28063146384649
:1078400002D5FFF77FFB01E0FFF77AFB6806050E24
:10785000FFF79AFF641CA4B2082CE4D3ADF80060D3
:107860008DF8028048208DF8030069463846FFF7FE
:107870000FFB31463846FFF765FBFFF785FF10B970
:107880000120BDE8F8830020FBE70000000C014068
:10789000F8B54FF40054ADF8004003208DF8020015
:1078A0001020104D8DF8030069462846FFF7F0FAC6
:1078B00021462846FFF746FB661031462846FFF76B
:1078C00041FB052005F0D6FE21462846FFF738FB90
:1078D000052005F0CFFE31462846BDE8F840FFF709
:1078E0002FBB0000000C014038B54FF40054ADF838
:1078F000004003208DF8020010200D4D8DF803008C
:1079000069462846FFF7C4FA21462846FFF718FBC8
:10791000052005F0AFFE61102846FFF713FB052098
:1079200005F0A8FE21462846BDE83840FFF70ABB0F
:10793000000C0140F8B505460E46174600240AE043
:1079400028680090042269463046FCF7E7FB2D1DAD
:10795000361D241DA4B2BC42F2D3F8BD2DE9F0417E
:1079600006460C461746FFF7F3F93046FFF792F943
:10797000042800D0FEE7002510E030462168FFF71C
:10798000C5F930682168884204D0FFF7B7F90020B4
:10799000BDE8F081361D241D2D1DADB2BD42ECD3D6
:1079A000FFF7ACF90120F3E7F8B53048416821F062
:1079B0007F4141F0007141602D4D10212846FFF7B5
:1079C000C1FA1024ADF800408DF8034003268DF86D
:1079D000026069462846FFF75BFA264D08212846D3
:1079E000FFF7AEFA0820ADF8000069462846FFF719
:1079F0004FFA10212846FFF7A3FAADF80040694678
:107A00002846FFF745FA20212846FFF799FA20205B
:107A1000ADF8000069462846FFF73AFA40212846AB
:107A2000FFF78EFA4020ADF8000069462846FFF7C0
:107A30002FFA8020ADF8000048208DF803000E4C8E
:107A40008DF8026069462046FFF722FAA014ADF8CF
:107A5000000069462046FFF71BFA6014ADF80000ED
:107A600069462046FFF714FAF8BD00000000014007
:107A700000080140000C0140001801402DE9F84FBA
:107A8000DFF85CB14FF4807421465846FFF758FA8E
:107A9000ADF8004010208DF8030003208DF802009F
:107AA00069465846FFF7F4F94FF4FA7A504605F064
:107AB000D1FD650029465846FFF742FAADF800505F
:107AC00069465846FFF7E4F9504605F0C3FDA600A5
:107AD00031465846FFF734FAADF80060694658461B
:107AE000FFF7D6F9504605F0B5FDE7003946584690
:107AF000FFF726FAADF8007069465846FFF7C8F957
:107B0000504605F0A7FD4FF4805841465846FFF710
:107B100017FAADF8008069465846FFF7B9F95046A4
:107B200005F098FD4FF4005949465846FFF708FA0A
:107B3000ADF8009069465846FFF7AAF9504605F09F
:107B400089FD0121022006F01AF9504605F082FD58
:107B50000021022006F013F9504605F07BFD0121BB
:107B6000022006F00CF9504605F074FD01210320B7
:107B700006F005F9504605F06DFD0021032006F0E2
:107B8000FEF8504605F066FD0121032006F0F7F8E7
:107B9000504605F05FFD21465846FFF7D3F92946C8
:107BA0005846FFF7CFF931465846FFF7CBF939462B
:107BB0005846FFF7C7F941465846FFF7C3F949460B
:107BC0005846FFF7BFF90021022006F0D8F800213F
:107BD000032006F0D4F8FFF7E7FEBDE8F88F0000B9
:107BE0000018014002494CF6CC4008607047000084
:107BF0000030004002494AF6AA20086070470000A1
:107C000000300040014948607047000000300040EB
:107C10000149886070470000003000400149086059
:107C2000704700000030004038B5174D4FF48064B5
:107C300021462846FFF786F9ADF8004010208DF860
:107C4000030003208DF8020069462846FFF720F95B
:107C500021462846FFF774F9012005F0FBFC214678
:107C60002846FFF76FF9012005F0F4FC07F0D2F881
:107C70000649884204D0012105A2084605F0DAFF32
:107C800007F024FC38BD0000000801400090460ABF
:107C9000444D39303030414520446574656374206B
:107CA0004661696C6564000010B50C4900200870DD
:107CB0000B4908700B490870FFF7B6FF0A4807F038
:107CC000A5FC0948203007F07FFC0748103007F07A
:107CD000BFFCBDE8104007F05FBC0000740100204D
:107CE0007501002076010020C20C002046220249C6
:107CF000024805F0BBBF0000AC01002000FF1F00E0
:107D000030B587B0012141F2140003F0B7FAE0204A
:107D1000ADF8040018208DF8070003208DF8060048
:107D200001A91A48FFF7B4F81024194DADF8044022
:107D30008DF8074001A92846FFF7AAF81021284628
:107D4000FFF700F90020ADF80800ADF80C004FF483
:107D50008271ADF80A100221ADF80E10ADF8144092
:107D60000121ADF81010ADF8160049020720094CAA
:107D7000ADF81210ADF8180002A9204603F0A7FED6
:107D80000121204603F08EFE07B030BD00080140FF
:107D900000100140003001402DE9F04118A003C857
:107DA00086B0CDE9040118A13CC968463CC0DFF8A3
:107DB0006880002508F1060740F24310684308EB8D
:107DC0004000062204A905F0E7FF40F286200024C7
:107DD00005FB00F606EB041038441022694605F056
:107DE000DBFF641CA4B2282CF4D3FFF703FF6D1C47
:107DF000ADB2142DE0D305F053FC06B0BDE8F08120
:107E00000007030601000000000023590000235969
:107E1000000023590000235900BA1F001FB5214C50
:107E2000616B002928D0A06B884230D21E49C0EB7C
:107E3000001008440F22694605F018FF9DF8000065
:107E400001281AD19DF801008DF800009DF802006C
:107E50008DF801009DF803008DF802009DF80400E4
:107E60008DF803006846FDF74DFA0AE00D4904223B
:107E700038312C20FFF754FC1FBD0DF10100FEF737
:107E800065FD0028F8D0A06B401CA063EEE7002041
:107E900060630449A063042234312820FFF740FCCA
:107EA000E4E700003400002000B015002DE9FF4198
:107EB00028208DF8080003268DF8096000248DF82D
:107EC0000A4001278DF80B7002A800F0D4FAB50221
:107ED000ADF80C5004208DF80F008DF80E60114E97
:107EE00029463046FFF72EF803A93046FEF7D0FFAB
:107EF0000A210420FEF7B8FF0B210420FEF7B4FF8F
:107F00008DF804400C208DF8050000958DF8067062
:107F10006846FEF785FE04488470C470047144709E
:107F2000BDE8FF8100180140080000202DE9FF4155
:107F300017208DF8080004268DF8096000248DF8BC
:107F40000A4001278DF80B7002A800F094FA4FF454
:107F50004075ADF80C508DF80F600320114E8DF870
:107F60000E0029463046FEF7EDFF03A93046FEF726
:107F70008FFF08210420FEF777FF09210420FEF778
:107F800073FF8DF804400C208DF8050000958DF8E6
:107F900006706846FEF744FE03488472C472047398
:107FA000BDE8FF8100180140080000200D483C2179
:107FB0008069B0FBF1F201FB12000A21B0FBF1F283
:107FC00001FB1200084900EB02104A78C0B282425D
:107FD00006D109780909B1EB101F01D101207047C2
:107FE00000207047A00C002095000020A12808D395
:107FF000A1F140003E2802D9A1395D2901D8012014
:10800000704700207047000070B52B4C06460846AC
:108010002146E37A897A4FF4FA6563B1012908D1E0
:1080200005F0E2FA012125A2084605F003FE28A288
:108030000FE0012070BD2A4B93F89030012B13D133
:1080400091B905F0D1FA012126A2084605F0F2FD0A
:1080500029A20121022005F0EDFD0020FDF724FA00
:108060002846FDF7E7F924E00121274BE1720025BE
:108070001D80114B78339971A3F11701097819808C
:108080005980491D998002F10D01C9B203F03CFDF0
:10809000E57105F0A9FA012005F078FA26B1012171
:1080A0003246084605F0C6FD18A20121022005F05F
:1080B000C1FD002070BD000034000020CBABBFA884
:1080C000D1E9D6A42CB5DAB6FED5C50A0000000069
:1080D000BFA8B1D8D0EBCEAAB8B1BFA8210000008C
:1080E000FA0B0020CBABBFA8D1E9D6A42CB5DAD2CD
:1080F000BBD5C50A00000000BFA8B1D8D0EBCEAAFE
:10810000D6F7BFA82100000004010020C7EBCBA2D6
:10811000B5DAB6FED5C5BFA82E2E2E0070B54FF429
:10812000AF7005F0A7FA134E80213046FEF701FF2D
:10813000012801D1012500E00025002480213046DE
:10814000FEF7F7FE012800D00020A84201D0284603
:1081500070BD002112200200A0F10100C0B2FAD1CE
:10816000491C89B20129F5D3641CE4B2962CE5D3ED
:10817000FF2070BD0018014038B50F4D0F21284673
:10818000FEF7E0FE0F20ADF8000010208DF8030090
:1081900003248DF8024069462846FEF779FE072041
:1081A000ADF8000048208DF803008DF802406946C4
:1081B0000248FEF76DFE38BD001001400008014086
:1081C000002207E012210B00A1F10101C9B2FAD18E
:1081D000521C92B28242F5D370470000F8B5504E5F
:1081E00080213046FEF7ACFE8020ADF8000003256C
:1081F0008DF8025010248DF8034069463046FEF792
:1082000047FE042005F026FA80213046FEF79AFE4C
:10821000270139463046FEF793FEADF800706946F7
:108220003046FEF735FE670139463046FEF788FED8
:10823000ADF800708DF8034069463046FEF728FE21
:108240000220384EADF8000069463046FEF720FEA9
:1082500001213046FEF774FE0120ADF800006946AA
:108260003046FEF715FEFF20ADF800008DF80250F5
:108270008DF8034069462C48FEF70AFE2B49002082
:10828000087048708870C870AE22014600F050F83F
:10829000AE220021012000F04BF80021D022084638
:1082A00000F046F8D0220021012000F041F8002122
:1082B000A422084600F03CF8A4220021012000F08E
:1082C00037F80021A922084600F032F8A92200213F
:1082D000012000F02DF80021A022084600F028F827
:1082E000A0220021012000F023F80021EE22084600
:1082F00000F01EF8EE220021012000F019F8002104
:10830000AF22084600F014F8AF220021012000F04F
:108310000FF805F069F90121084605F0CBFAF8BD20
:10832000000C01400018014000140140140100201D
:108330002DE9F047254F80460E4614460121384668
:10834000FEF7FEFD224D4FF480794FF4007AB8F12C
:10835000000F01D1494600E051462846FEF7F2FDE4
:108360000221384616B9FEF7EBFD06E0FEF7EAFDFE
:108370001848C07808B1E043C4B2002630467108FE
:1083800004F080060E436106401C0C0EC0B20828A3
:10839000F5D30120FFF714FF0F4C2046FEF7C6FD72
:1083A00000F47F4131432046FEF7CEFD0120FFF768
:1083B00007FF49462846FEF7C3FD51462846FEF70B
:1083C000BFFDBDE8F0470120FFF7FABE00180140ED
:1083D000000C01401401002000140140FEE70000E1
:1083E00070B50D46044600210846FDF7C1FD20B1D9
:1083F0000B48806A08B1417E09B9002070BDC0E910
:10840000085408490860022007F048FD0648008823
:1084100018B107F045FB07F061F8012070BD0000BE
:1084200070010020500100203801002070B5044682
:108430000D460120FDF78AFE20B10B48806A08B185
:10844000417E09B9002070BDC0E9085407490860A1
:10845000022007F023FD0648008818B107F020FB32
:1084600007F03CF8012070BD700100205001002091
:1084700038010020704770B50F24C27801784FF0A2
:10848000E0230126E2B1D3F80C2D194402F4E06296
:10849000C2F5E062120AC2F10405D4404278AA4053
:1084A0008578254015432A0181F80024007800F0E2
:1084B0001F018E40400903EB8000C0F8006170BDD1
:1084C00001F01F008640480903EB8000C0F880617E
:1084D00070BD00000249084302490860704700006F
:1084E0000000FA050CED00E0024A11400143024889
:1084F0000160704780FFFF1F08ED00E02DE9F84F95
:108500004D4E80464FF4407529463046FEF71AFD21
:10851000ADF8005010208DF8030003208DF8020004
:1085200069463046FEF7B4FC002098F8002001466A
:10853000130601D5401CC0B25206491C120EC9B226
:108540000829F5D398F8011000230A46140601D52E
:10855000401CC0B252065B1C120EDBB2042BF5D3DA
:10856000C20700D08020002422460B0701D5641CDE
:10857000E4B24906521C090ED2B2042AF5D398F887
:1085800002200021130601D5641CE4B25206491CE6
:10859000120EC9B20829F5D3E10700D180244FF4A7
:1085A000807A4FF4007B802801D1514600E0594683
:1085B0003046FEF7C5FC4FF47A794F46484605F041
:1085C00059F829463046FEF7BDFC384605F052F80A
:1085D000002718F807600025300601D5514600E055
:1085E00059461548FEF7ACFC484605F043F84FF4F1
:1085F00040711148FEF7A6FC484605F03BF87006AE
:108600006D1C060EEDB2082DE6D37F1CFFB2032FC2
:10861000DFD3802C01D1514600E059460648FEF7D1
:108620008FFC484605F026F84FF440710248FEF7EB
:1086300089FCBDE8F88F0000001801400A4908B124
:10864000002200E032220A80084901228A71084A89
:1086500013780B8013784B801278104488800121A6
:10866000022005F08CBB000004010020BC000020AB
:10867000020100200849002008800848012181717A
:1086800007490A7802800A784280064A0978928C63
:10869000114481807047000004010020C4000020C4
:1086A00002010020FA0B00202DE9F047264E4FF082
:1086B0000004050088469146F47206F178070DD053
:1086C0000121032005F05BFB0021022005F057FB90
:1086D000002005F02FFB03F0DBF908E0F87918B96A
:1086E0000021032005F04BFB012005F023FB174878
:1086F000174990F82C0008B10C8001E032220A8062
:10870000691CB97113490A783A800A787A80097825
:108710000844B880F47104F067FFB8F1000F04D08A
:1087200001214246084605F085FAB9F1000F04D050
:108730004A460121022005F07DFA03F0ADFB2846F0
:10874000BDE8F047FCF7B0BE34000020FA0B002073
:108750000401002002010020704700002DE9FF41C4
:108760004B4F4C4EB88A328840F2DC5381180024BB
:10877000994203D3FC71BC82BDE8FF814649474D55
:10878000096888B903E00B5C1BB9401C80B29042B9
:10879000F9D3121A92B20144BA824048FBF7BEFCE8
:1087A0007C820120F87106E02844FBF7B7FCB88A08
:1087B00031880844B882BA8A0A2ADDD328462B7841
:1087C000374D384E3C2B22D1811811F8011C3E291F
:1087D000D2D1FC71BC8201AB0093052302223B2164
:1087E000401CFEF789FC0028C6D001A8FBF7ECFD71
:1087F000F862A969814205D0D6F87310814201D090
:108800000028B9D12849254801F076FEB4E77B2B32
:1088100020D1811811F8011C7D29ADD1FC71BC82D9
:1088200001AB052221A1401CFEF7FEFC0028A3D0CD
:1088300001A8FBF7C9FDF862A969814205D0D6F805
:108840007310814201D0002896D11749134802F0D5
:1088500001FA91E7B0F80510C91D89B2B9818A42C1
:108860008AD1FC71BC82D0F80100F862502B83D110
:10887000AA69824205D0D6F87320824201D000282E
:10888000C4D10D4B0D4A054801F0F6F874E700001D
:108890007001002038010020480100207C270020C2
:1088A000A00C0020FA0B00200DE200084465766958
:1088B000636549440000000099BD00087DE100089F
:1088C0002DE9F041264D274FA88B3A8800248118C6
:1088D000322903D36C72AC83BDE8F0812249234E68
:1088E000096888B903E00B5C1BB9401C80B2904258
:1088F000F9D3121A92B20144AA831C48FBF70EFC6A
:108900006C830120687206E03044FBF707FCA88BFB
:1089100039880844A883A88B0A28DDD3B6F8051047
:10892000C91D89B2E9818842D6D16C72AC83D6F870
:108930000100E8623278502ACED10D4A9269824213
:1089400006D00C4AD2F87320824201D00028C3D14D
:10895000BDE8F0410023084A044801F08DB800004A
:10896000700100203801002048010020343300202D
:10897000A00C0020FA0B0020A56700082DE9F041AB
:10898000234D244F288B3A8840F2DC538118002471
:10899000994203D32C722C83BDE8F0811E491F4EEF
:1089A0000968A0B906E00B5C3C2B05D07B2B03D0FB
:1089B000401C80B29042F6D3121A92B201442A832C
:1089C0001648FBF7ABFBEC820120287206E030442E
:1089D000FBF7A4FB288B398808442883288B0F28B1
:1089E000DAD9304410F8010C3E2807D12C722C83C0
:1089F000BDE8F0410A49094801F07EBD7D28CBD190
:108A00002C722C83BDE8F0410549044802F022B9DC
:108A1000700100203801002048010020582D00205E
:108A20000DE200082DE9F04F97B04FF485294FF47F
:108A30007A7BFF4C002604F1120740F2DC584FF419
:108A4000FA7A08AD11287ED2DFE800F009141B93F2
:108A5000F8F7F6F5F4F3F2F1F0EFEEEDEC0004F0D8
:108A6000C3FD94F84D20F3A108A805F007FFF049D5
:108A70004D3136E105F05CFD08B1F4A11DE3584627
:108A8000ABE004F0B1FDF5A1FA48FBF7AEFB012124
:108A9000F84A084605F0CEF805F012F80790F8B14C
:108AA0009DF81C0002284ED0F3A1F548FBF79DFB72
:108AB00008AB0122CDE90023F14B0A22002101205D
:108AC000FEF7F6FB0A283ED1EEA1ED48FBF78DFB41
:108AD00003AAEB4908A8FBF791FB0398089007E06D
:108AE00008A907A802F0DEFD10B9FFF783F8D3E765
:108AF000607C78B10422394608A8FBF769FB48B9C5
:108B0000E1A1DF48FBF771FBDD49002004F00CF91F
:108B100040469DE00921281DFBF719FB8DF82560D3
:108B200063208DF8260011208DF827008DF828008D
:108B300008A8FCF7E7FB0790012808D1D6A1D04888
:108B4000FBF753FB00E04AE0CD4901200BE09DF824
:108B50001C00022801D1D4A100E0D7A1C848FBF72E
:108B600044FBC749002004F0DFF85046FCF762FCE4
:108B700087E704F039FDD4A1BE48FBF736FB01219D
:108B8000BC4A084605F056F804F09AFF0790002802
:108B900034D09DF81C00022821D0B7A1B848FBF7BB
:108BA00024FB08AB0122CDE90023B54B0A220021AA
:108BB0000120FEF77DFB0A2811D1C9A108A8FBF707
:108BC000F9FA78B9FDF70AFFC8A1AD48FBF70DFB2C
:108BD000AB49012004F0A8F84046FCF72BFC17B085
:108BE000BDE8F08FA7A1A648FBF7FFFA03AAA449A6
:108BF00008A8FBF703FB0398089007E008A907A85B
:108C000002F050FD10B9FEF7F5FFBDE708A8FDF72B
:108C10009DFE012813D1B9A19948FBF7E6FA9849BE
:108C2000012012E095E267E24FE229E2FFE1FBE179
:108C3000E1E0D5E0AFE07BE059E048E00BE0B3A134
:108C40008F48FBF7D2FA8E49002004F06DF85046A9
:108C5000FCF7F0FB8DE7B1A18948FBF7C6FAB1A19B
:108C60008448FBF7C2FA08AB0122CDE90023844B0C
:108C7000042200210120FEF71BFB0428AFD12B1D8D
:108C80000122CDE900237B4B042201210020FEF7C5
:108C90000FFB0428A3D10422291D08A8FBF798FA8A
:108CA00030B1A4A17648FBF7A0FA7549002009E28B
:108CB000A4A17348FBF799FA7149012004F034F834
:108CC0005B490422163108A806F0BEFB82E004F0DE
:108CD0008BFC94F820209FA108A805F0CFFD5449F3
:108CE000203108A806F0D5FB0128C7D14AE094F846
:108CF0002C209EA108A805F0C1FD04AB0122CDE9FE
:108D0000002308AB032200210120FEF7D1FA00283E
:108D10007FF765AF4EA15A48FBF767FA5849012023
:108D200004F002F804A8FBF742FB84F82C0051E0A1
:108D300004F05AFC94F8222093A108A805F09EFDA7
:108D40003B4908A8223106F0A4FB0028FFF647AFF4
:108D500094F82200B0B104F047FCE28C90A108A87E
:108D600005F08CFD04AB0122CDE90023002108AB06
:108D700005220846FEF79CFA002803DD04A8FBF74D
:108D800016FBE08432A13E48FBF72FFA3C49012054
:108D900003F0CAFF1EE0B4F8492086A108A805F038
:108DA0006DFD04AB0122CDE9002308AB04220021B4
:108DB0000120FEF77DFA0028AADD25A13048FBF747
:108DC00014FA2F49012003F0AFFF04A8FBF7EFFAD4
:108DD000A4F84900A6221649484605F037F84EE6A1
:108DE00004F002FC94F8922078A108A805F046FD52
:108DF0000F49923175E794F848207AA108A805F048
:108E00003DFD012204ABCDE9002308AB0021104653
:108E1000FEF74EFA0028CFDD9DF810003038042808
:108E2000BFF4DDAE04A8FBF7C2FA04F8480FE9E08E
:108E3000FA0B0020BFAAB7C53D313B20B9DCD6C62E
:108E40003D302E0A5B25645D3A000000CAB1BCE4E7
:108E5000C9E8D6C3B3C9B9A621000000D0C2D4F670
:108E6000BFA8C6AC0AB5C8B4FDCAE4C8EB2E2E2E06
:108E700000000000890D0020BFA8BAC53A0000001C
:108E80003E0D0020256C7500D5E2CAC7D2BBD5C502
:108E9000C4B8BFA821000000D0C2BFA8B4B4BDA808
:108EA000B3C9B9A621000000BFA8C6ACD7CAC1CFBC
:108EB000D2D1B4E6D4DA2100BFA8C6ACD7CAC1CF9C
:108EC000D2D1C2FA21000000C9BEB3FDBFA8C6AC12
:108ED0000AB5C8B4FDCAE4C8EB2E2E2E000000006F
:108EE000393939393939393939390000C9BEB3FD11
:108EF000CBF9D3D0BFA8B3C9B9A62100C9BEB3FD71
:108F0000BFA8C6ACB3C9B9A621000000CEDEB4CB61
:108F1000BFA8C6ACD7CAC1CF21000000D0C2C3DCF5
:108F2000C2EB3A000AC8B7C8CFD0C2C3DCC2EB3A22
:108F300000000000C1BDB4CECAE4C8EBB2BBD2BBD6
:108F4000D1F92100C3DCC2EBD0DEB8C4B3C9B9A6E5
:108F500021000000CBF8B6A83D313B20B2BBCBF8D6
:108F60003D302E0A5B25645D3A000000D5FDB3A3B9
:108F7000BFA8B6AFD7F7D1D3CAB10A28C3EB295BD4
:108F800025755D3A00000000B4F2BFAA3D313BB93F
:108F9000D8B1D53D302E0A5B25645D3A0000000053
:108FA000B1A8BEAFCAB1BCE428C3EB290A5B2564F3
:108FB0005D3A0000BCC7D6D8B8B4CAB1BCE428B783
:108FC000D6290A5B25755D3A00000000B2BBB1A34B
:108FD000B4E63D313B0AB1A3B4E63D302E5B2564D7
:108FE0005D3A00005732363D303B4849443D313B05
:108FF0005733360A3D323B5733343D332E5B2564BD
:109000005D3A0000AFF2B8115748FBF7EEF8564949
:10901000012003F089FEA6225449484604F016FFB9
:10902000207805F033F82AE503F0E2FCD7E504F0F8
:10903000DBFA01214EA2084604F0FCFD4FF4FA6071
:10904000FCF7F8F994F84B2050A108A805F016FC9D
:10905000012204ABCDE9002308AB00211046FEF746
:1090600027F90028E2DD9DF810003528DED804A895
:10907000FBF79DF984F84B003846FCF777FD81E655
:1090800004F0B2FA474C48A194F8672008A805F00C
:10909000F5FB04F1670108A806F0FBF90128C5D12A
:1090A00094F8670018B9464806704648067068226A
:1090B0003C494548FEF752FC1BE02B48FBF795F86E
:1090C0002949012003F030FED9E404F08DFA94F828
:1090D00091203EA108A805F0D1FB244908A89131B0
:1090E00006F0D7F90128A1D1A6222049484604F06C
:1090F000ADFEAFF2A421E0E704F076FA94F879200F
:1091000038A108A805F0BAFB012204ABCDE9002381
:1091100008AB00211046FEF7CBF8002886DD9DF84D
:1091200010003228A2D804A8FBF741F984F879008E
:10913000A6220E49484604F089FE31A10A48FBF7F1
:1091400054F80949012003F0EFFD5846FCF772F985
:10915000FEE794F8790020B10228A0D103F0FEFCCC
:109160003DE502F0D3FE3AE53E0D0020FA0B00206B
:10917000454D3D303B4C383D313B0A594C454D3D0A
:10918000323B594C43533D333B000000594C323184
:109190003D343B594C54323D352E0A5B25645D3AD3
:1091A00000000000A00C0020CFDFCFC23D303B0A02
:1091B000CFDFC9CF3D312E5B25645D3A0000000052
:1091C000740100207601002000FC0108B7B1CCE555
:1091D0003D303B0ABCF2CCE53D312E5B25645D3A67
:1091E00000000000C3C5BDFB3D303BBFBCC7DA3D3E
:1091F000313B0AD3C3B2CD3D322E5B25645D3A00CC
:10920000C9E8D6C3B3C9B9A6210ACFB5CDB3BDABA2
:10921000D6D8C6F42E2E2E0010B50F4900228B781A
:109220004BB1CA7002F032FB0C48B0F84E00BDE8FA
:10923000104005F087BA088A042804D90A82BDE8DC
:109240001040FEF731BD8A71087808B10A7010BD70
:109250000120087010BD000070010020FA0B0020F2
:10926000FEB5134890F88B00002819D01148114E14
:1092700081788DF80010407800240F4F8DF80100A0
:10928000613E01AD07EB8400042201A904F0EEFC6D
:1092900002236A46A91C01A804F0A2FE08B1F473D7
:1092A000FEBD641C24B2052CECDBFF20F073FEBD78
:1092B000FA0B002095000020001904002DE9F34F5F
:1092C00093B082464FF00008042207A81499FAF7D9
:1092D00025FFFF4F387F0028504601D118B100E02C
:1092E00008B9012400E00024787C012810D1F84856
:1092F000042207A91230FAF76BFF48B9052004F0E1
:1093000045F902F0C9FD03F0F1FA15B0BDE8F08FA0
:1093100097F87900EF4E4FF0000B022801D001289A
:109320003ED1F0694CF61451884211D3EAA1ED48C0
:10933000FAF75BFFEB48ECA11930FAF756FF14205F
:1093400004F024F9E74AE74919320020FFF7ACF9A5
:1093500097F87900022823D1DD48042207A97A3042
:10936000FAF736FFE0B9E3A1DE48FAF73EFF04F072
:109370003BF90121DB4A084604F05CFCD549042294
:1093800044311020C6F844B0FEF7CAF902F06AFD75
:109390000A2004F0FBF84FF4FA60FCF74BF8B4E74E
:1093A000D048D8A11938079A05F068FAB7F84900EB
:1093B00090B1B7F9491007A8FCF746F960B9C5485C
:1093C000D3A15230C378009383784278C5481930CE
:1093D00005F054FAD3A117E007A8E4B901F026FF7D
:1093E00000282DDA97F8920038B997F8790020B95B
:1093F0002246052107A802F087FB97F8220010B14A
:10940000F88CFFF71BF9CAA1B648FAF7EEFEB54A89
:10941000A2F1190186E0FDF799FD10F0FF0004901C
:1094200008D107A8FDF792FD10F0FF00049001D1CC
:10943000C3A1E9E79DF81000012801D1C4A1E3E729
:10944000A8489E3890F86700012870D1C448007879
:1094500000286CD01498C3A1026809A805F00EFA80
:109460000025DFF8089310E0012004F0F3F804F081
:10947000D5FF6D1CB7F84E00ADB2A84205D299F8E1
:109480000000401C89F8000003E0707B401E132898
:10949000EAD386F80CB02046FDF7D8FD024609A9AC
:1094A000204602F065F9002848D0002542E001205E
:1094B00004F0D0F804F0B2FF307BB8B3AC4989F8BF
:1094C00000B081F800B00321AA48FAF740FE307BD3
:1094D000022812D197F8790058B997F88F0040B157
:1094E0008048224607A91938FEF78EFD00283FF470
:1094F00056AFA04900221E395FE097F8920040B9AC
:1095000097F8790028B9601DC1B2224607A802F079
:10951000FBFA97F8220010B1F88CFFF78FF8954905
:1095200000221E390020FFF7BFF8EEE600E016E04B
:109530006D1CADB2B7F84E00A842B8D8307BFF2101
:1095400060B999F800004FF00108401C89F800004C
:1095500097F85400012801D93173CEE1317397F89F
:109560004D0078B197F8790050B997F88F0038B16D
:109570005C48224607A91938FEF746FD0028D4D0DA
:109580007DA114E0F87F63281BD0FCF753FAC0B12B
:1095900097F8790050B997F88F0038B151482246B2
:1095A00007A91938FEF730FD0028BED076A14D4836
:1095B000FAF71BFE4B4AA2F119010120FFF774F8DC
:1095C00064E107A801F004FE01287BD14548323848
:1095D000FAF7E8FD28B14349323901F11900FAF7E9
:1095E00004FE04A92046FCF727F970B997F8920009
:1095F00000289AD197F87900002896D122469DF844
:10960000101007A802F080FA7FE6FCF7ADF90028F9
:10961000307A02D0C0F3021001E000F00F00002504
:10962000062850D2DFE800F052032CE2F9F7707AF6
:10963000FCF700FA002847D0012003F0A7FF002024
:1096400004F078FB02F028FC53A127E0214A042310
:109650004D3205A9149805F017F8050035D12CE016
:1096600097F8220010B1F88CFEF7E8FF4EA1CBE688
:1096700097F8220010B1F88CFEF7E0FF4DA1C3E689
:10968000707AFCF7D7F9002820D1012003F07EFF83
:10969000002004F04FFB02F0FFFB4AA11148FAF74B
:1096A000A4FD104905AB00228DE80E000423012122
:1096B0005046FDF7B8FC0028C8D197F89200002862
:1096C000CED187E004E101E194E0B0E0BBE000002E
:1096D000FA0B002034000020D7CAC1CFD2D1C2FA81
:1096E000212121003E0D0020CBA2BFA8CEDED0A7B5
:1096F00021212100D3C3B2CDBCC7CAFDC7E5C1E358
:1097000000000000BFA8BAC53A253031306C7500A2
:10971000C9CFB4CE3A2530327820253032783A2578
:1097200030327800D6D8B8B4CBA2BFA82100000050
:10973000B2BBD4DAD4CAD0EDC3FBB5A5D6D00000F5
:10974000D3EBD6D0BFD8C1ACBDD3B9CAD5CF0000FA
:10975000D6D0BFD8B2BBD4CAD0EDCBA2BFA8000030
:1097600074010020253031306C7500007501002037
:1097700003010020730E0020BFAAB7C5C4A3CABD51
:1097800020CDA8B9FD000000BFAAB7C5CAB1B6CEAA
:1097900020CDA8B9FD000000CAB1B6CEC4DA0AC314
:1097A000DCC2EB3A00000000C3DCC2EBB4EDCEF348
:1097B00000000000CAB1B6CECDE2CEDEC8A8CFDE32
:1097C00000000000CAB1B6CECDE20AC3DCC2EB3A5B
:1097D0000000000097F8790000287FF441AFE01DF9
:1097E000C1B2224607A802F08FF939E7707AFCF778
:1097F00021F940BB97F8920000287FF439AF97F821
:1098000079000028F9D104F10900C1B2224607A865
:1098100002F07AF92CE744E0FFE7012003F0B6FEFE
:10982000002004F087FA02F037FB36A136E7022D5C
:1098300009D104F11B00C1B2224607A802F064F965
:10984000F88CFEF7FBFEF87E28B1706901222F49E3
:10985000001D04F0FBFA97F8790050B997F88F00D3
:1098600038B1224607A92A48FEF7CEFB00283FF46C
:1098700096AD274827A11930FAF7B7FC244A2449A6
:1098800019320120FEF710FF022D07D02046FDF708
:10989000DDFB0146224607A802F036F9FBF7B0FDD2
:1098A00033E597F8920048B997F8790030B904F198
:1098B0000B00C1B2224607A802F026F997F8220051
:1098C00010B1F88CFEF7BAFE15A19DE517A19BE536
:1098D00097F8920040B997F8790028B9601DC1B295
:1098E000224607A802F010F997F8220010B1F88C70
:1098F000FEF7A4FEB8F1000F01D00FA184E512A17C
:1099000082E50000C3DCC2EB3A0000003C0000200E
:10991000250D0020C8CFD6A4CDA8B9FD00000000B9
:10992000BCD9C8D5B4EDCEF300000000C8A8CFDE86
:10993000B4EDCEF300000000CDA8D1B8B9CAD5CFA0
:10994000C7EBD4D9CAD42E00B7C7B7A8BFA80000A8
:1099500070B5002003F0C6FE00284BD002E00120C5
:1099600003F078FE002003F0BDFE0028F7D10120AF
:1099700003F00CFE03F038FE1FA12548FAF735FC72
:109980000121234A084604F055F9C82003F062FE7D
:10999000002440F6B835002003F0A4FE18B302E01E
:1099A000012003F057FE002003F09CFE0028F7D1B1
:1099B0000A2003F0EBFD17490020486404224431DB
:1099C0001020FDF7ADFE02F04DFA13A11048FAF792
:1099D0000CFC0F49012003F0A7F9BDE870404FF4DB
:1099E000FA60FBF727BD012003F034FE641CA4B22B
:1099F000AC42D0D370BD0000C4FAC8B7B6A8D2AA92
:109A0000C7E5B3FDCADBB7B9BCC7CAFDC2F03F00AA
:109A1000570D002034000020C7E5B3FDCADBB7B9FD
:109A2000BCC7CAFDB3C9B9A62121210010B50C4895
:109A3000C0793A2805D10A480A490A3000F05CFD8D
:109A400006E00B48084BC18A084A054800F014F8A4
:109A50000848018841F004010180002010BD000089
:109A60001406002059E10008A9BC0008B1E0000874
:109A7000080000200C4800402DE9FF4FB7B0054614
:109A80003898144601B22846FBF7C4FE00287ED160
:109A9000E87905F11D0205F10B0136928A1DDFF808
:109AA000008401260027DFF8FCB34FF0310C0DF1E4
:109AB000200A4FF0300E05F10A093592402867D090
:109AC0001FDCF94A36287ED2DFE800F07DD5F3F8B6
:109AD000F0EFEEED90ECEBEAE9E8E7E6E59999992D
